{
  "_format": "hh-sol-artifact-1",
  "contractName": "NitroxToken",
  "sourceName": "contracts/NitroxToken.sol",
  "abi": [
    {
      "inputs": [
        {
          "internalType": "string",
          "name": "newName",
          "type": "string"
        },
        {
          "internalType": "string",
          "name": "newSymbol",
          "type": "string"
        }
      ],
      "stateMutability": "nonpayable",
      "type": "constructor"
    },
    {
      "anonymous": false,
      "inputs": [
        {
          "indexed": true,
          "internalType": "address",
          "name": "owner",
          "type": "address"
        },
        {
          "indexed": true,
          "internalType": "address",
          "name": "spender",
          "type": "address"
        },
        {
          "indexed": false,
          "internalType": "uint256",
          "name": "value",
          "type": "uint256"
        }
      ],
      "name": "Approval",
      "type": "event"
    },
    {
      "anonymous": false,
      "inputs": [
        {
          "indexed": true,
          "internalType": "address",
          "name": "previousOwner",
          "type": "address"
        },
        {
          "indexed": true,
          "internalType": "address",
          "name": "newOwner",
          "type": "address"
        }
      ],
      "name": "OwnershipTransferred",
      "type": "event"
    },
    {
      "anonymous": false,
      "inputs": [
        {
          "indexed": true,
          "internalType": "address",
          "name": "from",
          "type": "address"
        },
        {
          "indexed": true,
          "internalType": "address",
          "name": "to",
          "type": "address"
        },
        {
          "indexed": false,
          "internalType": "uint256",
          "name": "value",
          "type": "uint256"
        }
      ],
      "name": "Transfer",
      "type": "event"
    },
    {
      "inputs": [
        {
          "internalType": "address",
          "name": "owner",
          "type": "address"
        },
        {
          "internalType": "address",
          "name": "spender",
          "type": "address"
        }
      ],
      "name": "allowance",
      "outputs": [
        {
          "internalType": "uint256",
          "name": "",
          "type": "uint256"
        }
      ],
      "stateMutability": "view",
      "type": "function"
    },
    {
      "inputs": [
        {
          "internalType": "address",
          "name": "spender",
          "type": "address"
        },
        {
          "internalType": "uint256",
          "name": "amount",
          "type": "uint256"
        }
      ],
      "name": "approve",
      "outputs": [
        {
          "internalType": "bool",
          "name": "",
          "type": "bool"
        }
      ],
      "stateMutability": "nonpayable",
      "type": "function"
    },
    {
      "inputs": [
        {
          "internalType": "address",
          "name": "account",
          "type": "address"
        }
      ],
      "name": "balanceOf",
      "outputs": [
        {
          "internalType": "uint256",
          "name": "",
          "type": "uint256"
        }
      ],
      "stateMutability": "view",
      "type": "function"
    },
    {
      "inputs": [
        {
          "internalType": "uint256",
          "name": "amount",
          "type": "uint256"
        }
      ],
      "name": "burn",
      "outputs": [],
      "stateMutability": "nonpayable",
      "type": "function"
    },
    {
      "inputs": [],
      "name": "decimals",
      "outputs": [
        {
          "internalType": "uint8",
          "name": "",
          "type": "uint8"
        }
      ],
      "stateMutability": "view",
      "type": "function"
    },
    {
      "inputs": [
        {
          "internalType": "address",
          "name": "spender",
          "type": "address"
        },
        {
          "internalType": "uint256",
          "name": "subtractedValue",
          "type": "uint256"
        }
      ],
      "name": "decreaseAllowance",
      "outputs": [
        {
          "internalType": "bool",
          "name": "",
          "type": "bool"
        }
      ],
      "stateMutability": "nonpayable",
      "type": "function"
    },
    {
      "inputs": [],
      "name": "getTime",
      "outputs": [
        {
          "internalType": "uint256",
          "name": "",
          "type": "uint256"
        }
      ],
      "stateMutability": "view",
      "type": "function"
    },
    {
      "inputs": [],
      "name": "getUnlockTime",
      "outputs": [
        {
          "internalType": "uint256",
          "name": "",
          "type": "uint256"
        }
      ],
      "stateMutability": "view",
      "type": "function"
    },
    {
      "inputs": [
        {
          "internalType": "address",
          "name": "spender",
          "type": "address"
        },
        {
          "internalType": "uint256",
          "name": "addedValue",
          "type": "uint256"
        }
      ],
      "name": "increaseAllowance",
      "outputs": [
        {
          "internalType": "bool",
          "name": "",
          "type": "bool"
        }
      ],
      "stateMutability": "nonpayable",
      "type": "function"
    },
    {
      "inputs": [
        {
          "internalType": "uint256",
          "name": "time",
          "type": "uint256"
        }
      ],
      "name": "lock",
      "outputs": [],
      "stateMutability": "nonpayable",
      "type": "function"
    },
    {
      "inputs": [],
      "name": "name",
      "outputs": [
        {
          "internalType": "string",
          "name": "",
          "type": "string"
        }
      ],
      "stateMutability": "view",
      "type": "function"
    },
    {
      "inputs": [],
      "name": "renounceOwnership",
      "outputs": [],
      "stateMutability": "nonpayable",
      "type": "function"
    },
    {
      "inputs": [],
      "name": "symbol",
      "outputs": [
        {
          "internalType": "string",
          "name": "",
          "type": "string"
        }
      ],
      "stateMutability": "view",
      "type": "function"
    },
    {
      "inputs": [],
      "name": "totalSupply",
      "outputs": [
        {
          "internalType": "uint256",
          "name": "",
          "type": "uint256"
        }
      ],
      "stateMutability": "view",
      "type": "function"
    },
    {
      "inputs": [
        {
          "internalType": "address",
          "name": "recipient",
          "type": "address"
        },
        {
          "internalType": "uint256",
          "name": "amount",
          "type": "uint256"
        }
      ],
      "name": "transfer",
      "outputs": [
        {
          "internalType": "bool",
          "name": "",
          "type": "bool"
        }
      ],
      "stateMutability": "nonpayable",
      "type": "function"
    },
    {
      "inputs": [
        {
          "internalType": "address",
          "name": "sender",
          "type": "address"
        },
        {
          "internalType": "address",
          "name": "recipient",
          "type": "address"
        },
        {
          "internalType": "uint256",
          "name": "amount",
          "type": "uint256"
        }
      ],
      "name": "transferFrom",
      "outputs": [
        {
          "internalType": "bool",
          "name": "",
          "type": "bool"
        }
      ],
      "stateMutability": "nonpayable",
      "type": "function"
    },
    {
      "inputs": [
        {
          "internalType": "address",
          "name": "newOwner",
          "type": "address"
        }
      ],
      "name": "transferOwnership",
      "outputs": [],
      "stateMutability": "nonpayable",
      "type": "function"
    },
    {
      "inputs": [],
      "name": "unlock",
      "outputs": [],
      "stateMutability": "nonpayable",
      "type": "function"
    }
  ],
  "bytecode": "0x60806040526c0c9f2c9cd04674edea400000006005556006805460ff191660121790553480156200002f57600080fd5b50604051620011843803806200118483398101604081905262000052916200023a565b600080546001600160a01b031916339081178255604051909182917f8be0079c531659141344cd1fd0a4f28419497f9722a3daafe3b4186f6b6457e0908290a3508151620000a8906008906020850190620000c7565b508051620000be906007906020840190620000c7565b505050620002e0565b828054620000d590620002a4565b90600052602060002090601f016020900481019282620000f9576000855562000144565b82601f106200011457805160ff191683800117855562000144565b8280016001018555821562000144579182015b828111156200014457825182559160200191906001019062000127565b506200015292915062000156565b5090565b5b8082111562000152576000815560010162000157565b634e487b7160e01b600052604160045260246000fd5b600082601f8301126200019557600080fd5b81516001600160401b0380821115620001b257620001b26200016d565b604051601f8301601f19908116603f01168101908282118183101715620001dd57620001dd6200016d565b81604052838152602092508683858801011115620001fa57600080fd5b600091505b838210156200021e5785820183015181830184015290820190620001ff565b83821115620002305760008385830101525b9695505050505050565b600080604083850312156200024e57600080fd5b82516001600160401b03808211156200026657600080fd5b620002748683870162000183565b935060208501519150808211156200028b57600080fd5b506200029a8582860162000183565b9150509250929050565b600181811c90821680620002b957607f821691505b602082108103620002da57634e487b7160e01b600052602260045260246000fd5b50919050565b610e9480620002f06000396000f3fe608060405234801561001057600080fd5b50600436106101165760003560e01c806370a08231116100a2578063a69df4b511610071578063a69df4b514610218578063a9059cbb14610220578063dd46706414610233578063dd62ed3e14610246578063f2fde38b1461027f57600080fd5b806370a08231146101cc578063715018a6146101f557806395d89b41146101fd578063a457c2d71461020557600080fd5b8063313ce567116100e9578063313ce56714610181578063395093511461019657806342966c68146101a9578063557ed1ba146101be578063602bc62b146101c457600080fd5b806306fdde031461011b578063095ea7b31461013957806318160ddd1461015c57806323b872dd1461016e575b600080fd5b610123610292565b6040516101309190610bb7565b60405180910390f35b61014c610147366004610c28565b610324565b6040519015158152602001610130565b6005545b604051908152602001610130565b61014c61017c366004610c52565b61033a565b60065460405160ff9091168152602001610130565b61014c6101a4366004610c28565b6103a3565b6101bc6101b7366004610c8e565b6103d9565b005b42610160565b600254610160565b6101606101da366004610ca7565b6001600160a01b031660009081526003602052604090205490565b6101bc6103e6565b610123610451565b61014c610213366004610c28565b610460565b6101bc6104af565b61014c61022e366004610c28565b6105b5565b6101bc610241366004610c8e565b6105c2565b610160610254366004610cc2565b6001600160a01b03918216600090815260046020908152604080832093909416825291909152205490565b6101bc61028d366004610ca7565b610647565b6060600880546102a190610cf5565b80601f01602080910402602001604051908101604052809291908181526020018280546102cd90610cf5565b801561031a5780601f106102ef5761010080835404028352916020019161031a565b820191906000526020600020905b8154815290600101906020018083116102fd57829003601f168201915b5050505050905090565b600061033133848461071f565b50600192915050565b6000610347848484610844565b610399843361039485604051806060016040528060288152602001610daa602891396001600160a01b038a16600090815260046020908152604080832033845290915290205491906109ca565b61071f565b5060019392505050565b3360008181526004602090815260408083206001600160a01b038716845290915281205490916103319185906103949086610a04565b6103e33382610a6a565b50565b6000546001600160a01b031633146104195760405162461bcd60e51b815260040161041090610d2f565b60405180910390fd5b600080546040516001600160a01b0390911690600080516020610dd2833981519152908390a3600080546001600160a01b0319169055565b6060600780546102a190610cf5565b6000610331338461039485604051806060016040528060258152602001610e18602591393360009081526004602090815260408083206001600160a01b038d16845290915290205491906109ca565b6001546001600160a01b031633146105155760405162461bcd60e51b815260206004820152602360248201527f596f7520646f6e27742068617665207065726d697373696f6e20746f20756e6c6044820152626f636b60e81b6064820152608401610410565b60025442116105665760405162461bcd60e51b815260206004820152601f60248201527f436f6e7472616374206973206c6f636b656420756e74696c20372064617973006044820152606401610410565b600154600080546040516001600160a01b039384169390911691600080516020610dd283398151915291a3600154600080546001600160a01b0319166001600160a01b03909216919091179055565b6000610331338484610844565b6000546001600160a01b031633146105ec5760405162461bcd60e51b815260040161041090610d2f565b60008054600180546001600160a01b03199081166001600160a01b0384161790915516905561061b8142610d7a565b600255600080546040516001600160a01b0390911690600080516020610dd2833981519152908390a350565b6000546001600160a01b031633146106715760405162461bcd60e51b815260040161041090610d2f565b6001600160a01b0381166106d65760405162461bcd60e51b815260206004820152602660248201527f4f776e61626c653a206e6577206f776e657220697320746865207a65726f206160448201526564647265737360d01b6064820152608401610410565b600080546040516001600160a01b0380851693921691600080516020610dd283398151915291a3600080546001600160a01b0319166001600160a01b0392909216919091179055565b6001600160a01b0383166107815760405162461bcd60e51b8152602060048201526024808201527f42455032303a20617070726f76652066726f6d20746865207a65726f206164646044820152637265737360e01b6064820152608401610410565b6001600160a01b0382166107e25760405162461bcd60e51b815260206004820152602260248201527f42455032303a20617070726f766520746f20746865207a65726f206164647265604482015261737360f01b6064820152608401610410565b6001600160a01b0383811660008181526004602090815260408083209487168084529482529182902085905590518481527f8c5be1e5ebec7d5bd14f71427d1e84f3dd0314c0f7b2291e5b200ac8c7c3b92591015b60405180910390a3505050565b6001600160a01b0383166108a85760405162461bcd60e51b815260206004820152602560248201527f42455032303a207472616e736665722066726f6d20746865207a65726f206164604482015264647265737360d81b6064820152608401610410565b6001600160a01b03821661090a5760405162461bcd60e51b815260206004820152602360248201527f42455032303a207472616e7366657220746f20746865207a65726f206164647260448201526265737360e81b6064820152608401610410565b61094781604051806060016040528060268152602001610df2602691396001600160a01b03861660009081526003602052604090205491906109ca565b6001600160a01b0380851660009081526003602052604080822093909355908416815220546109769082610a04565b6001600160a01b0380841660008181526003602052604090819020939093559151908516907fddf252ad1be2c89b69c2b068fc378daa952ba7f163c4a11628f55a4df523b3ef906108379085815260200190565b600081848411156109ee5760405162461bcd60e51b81526004016104109190610bb7565b5060006109fb8486610d92565b95945050505050565b600080610a118385610d7a565b905083811015610a635760405162461bcd60e51b815260206004820152601b60248201527f536166654d6174683a206164646974696f6e206f766572666c6f7700000000006044820152606401610410565b9392505050565b6001600160a01b038216610aca5760405162461bcd60e51b815260206004820152602160248201527f42455032303a206275726e2066726f6d20746865207a65726f206164647265736044820152607360f81b6064820152608401610410565b610b0781604051806060016040528060228152602001610e3d602291396001600160a01b03851660009081526003602052604090205491906109ca565b6001600160a01b038316600090815260036020526040902055600554610b2d9082610b75565b6005556040518181526000906001600160a01b038416907fddf252ad1be2c89b69c2b068fc378daa952ba7f163c4a11628f55a4df523b3ef9060200160405180910390a35050565b6000610a6383836040518060400160405280601e81526020017f536166654d6174683a207375627472616374696f6e206f766572666c6f7700008152506109ca565b600060208083528351808285015260005b81811015610be457858101830151858201604001528201610bc8565b81811115610bf6576000604083870101525b50601f01601f1916929092016040019392505050565b80356001600160a01b0381168114610c2357600080fd5b919050565b60008060408385031215610c3b57600080fd5b610c4483610c0c565b946020939093013593505050565b600080600060608486031215610c6757600080fd5b610c7084610c0c565b9250610c7e60208501610c0c565b9150604084013590509250925092565b600060208284031215610ca057600080fd5b5035919050565b600060208284031215610cb957600080fd5b610a6382610c0c565b60008060408385031215610cd557600080fd5b610cde83610c0c565b9150610cec60208401610c0c565b90509250929050565b600181811c90821680610d0957607f821691505b602082108103610d2957634e487b7160e01b600052602260045260246000fd5b50919050565b6020808252818101527f4f776e61626c653a2063616c6c6572206973206e6f7420746865206f776e6572604082015260600190565b634e487b7160e01b600052601160045260246000fd5b60008219821115610d8d57610d8d610d64565b500190565b600082821015610da457610da4610d64565b50039056fe42455032303a207472616e7366657220616d6f756e74206578636565647320616c6c6f77616e63658be0079c531659141344cd1fd0a4f28419497f9722a3daafe3b4186f6b6457e042455032303a207472616e7366657220616d6f756e7420657863656564732062616c616e636542455032303a2064656372656173656420616c6c6f77616e63652062656c6f77207a65726f42455032303a206275726e20616d6f756e7420657863656564732062616c616e6365a2646970667358221220778031e8dbb792e57c0d114f151bff1eb1fda406156bd9218eb93bd7da999ff564736f6c634300080d0033",
  "linkReferences": {},
  "deployedLinkReferences": {}
}