{
  "_format": "hh-sol-artifact-1",
  "contractName": "Ownable",
  "sourceName": "contracts/NitroxToken.sol",
  "abi": [
    {
      "inputs": [],
      "stateMutability": "nonpayable",
      "type": "constructor"
    },
    {
      "anonymous": false,
      "inputs": [
        {
          "indexed": true,
          "internalType": "address",
          "name": "previousOwner",
          "type": "address"
        },
        {
          "indexed": true,
          "internalType": "address",
          "name": "newOwner",
          "type": "address"
        }
      ],
      "name": "OwnershipTransferred",
      "type": "event"
    },
    {
      "inputs": [],
      "name": "getTime",
      "outputs": [
        {
          "internalType": "uint256",
          "name": "",
          "type": "uint256"
        }
      ],
      "stateMutability": "view",
      "type": "function"
    },
    {
      "inputs": [],
      "name": "getUnlockTime",
      "outputs": [
        {
          "internalType": "uint256",
          "name": "",
          "type": "uint256"
        }
      ],
      "stateMutability": "view",
      "type": "function"
    },
    {
      "inputs": [
        {
          "internalType": "uint256",
          "name": "time",
          "type": "uint256"
        }
      ],
      "name": "lock",
      "outputs": [],
      "stateMutability": "nonpayable",
      "type": "function"
    },
    {
      "inputs": [],
      "name": "renounceOwnership",
      "outputs": [],
      "stateMutability": "nonpayable",
      "type": "function"
    },
    {
      "inputs": [
        {
          "internalType": "address",
          "name": "newOwner",
          "type": "address"
        }
      ],
      "name": "transferOwnership",
      "outputs": [],
      "stateMutability": "nonpayable",
      "type": "function"
    },
    {
      "inputs": [],
      "name": "unlock",
      "outputs": [],
      "stateMutability": "nonpayable",
      "type": "function"
    }
  ],
  "bytecode": "0x608060405234801561001057600080fd5b50600080546001600160a01b031916339081178255604051909182917f8be0079c531659141344cd1fd0a4f28419497f9722a3daafe3b4186f6b6457e0908290a350610483806100616000396000f3fe608060405234801561001057600080fd5b50600436106100625760003560e01c8063557ed1ba14610067578063602bc62b1461007b578063715018a614610083578063a69df4b51461008d578063dd46706414610095578063f2fde38b146100a8575b600080fd5b425b60405190815260200160405180910390f35b600254610069565b61008b6100bb565b005b61008b610126565b61008b6100a3366004610389565b61022c565b61008b6100b63660046103a2565b6102b1565b6000546001600160a01b031633146100ee5760405162461bcd60e51b81526004016100e5906103d2565b60405180910390fd5b600080546040516001600160a01b039091169060008051602061042e833981519152908390a3600080546001600160a01b0319169055565b6001546001600160a01b0316331461018c5760405162461bcd60e51b815260206004820152602360248201527f596f7520646f6e27742068617665207065726d697373696f6e20746f20756e6c6044820152626f636b60e81b60648201526084016100e5565b60025442116101dd5760405162461bcd60e51b815260206004820152601f60248201527f436f6e7472616374206973206c6f636b656420756e74696c203720646179730060448201526064016100e5565b600154600080546040516001600160a01b03938416939091169160008051602061042e83398151915291a3600154600080546001600160a01b0319166001600160a01b03909216919091179055565b6000546001600160a01b031633146102565760405162461bcd60e51b81526004016100e5906103d2565b60008054600180546001600160a01b03199081166001600160a01b038416179091551690556102858142610407565b600255600080546040516001600160a01b039091169060008051602061042e833981519152908390a350565b6000546001600160a01b031633146102db5760405162461bcd60e51b81526004016100e5906103d2565b6001600160a01b0381166103405760405162461bcd60e51b815260206004820152602660248201527f4f776e61626c653a206e6577206f776e657220697320746865207a65726f206160448201526564647265737360d01b60648201526084016100e5565b600080546040516001600160a01b038085169392169160008051602061042e83398151915291a3600080546001600160a01b0319166001600160a01b0392909216919091179055565b60006020828403121561039b57600080fd5b5035919050565b6000602082840312156103b457600080fd5b81356001600160a01b03811681146103cb57600080fd5b9392505050565b6020808252818101527f4f776e61626c653a2063616c6c6572206973206e6f7420746865206f776e6572604082015260600190565b6000821982111561042857634e487b7160e01b600052601160045260246000fd5b50019056fe8be0079c531659141344cd1fd0a4f28419497f9722a3daafe3b4186f6b6457e0a2646970667358221220b461ed89b4a46ff0e4b9154edc75d5dea1180988f7c4b89e19bac20759ef9b3c64736f6c634300080d0033",
  "linkReferences": {},
  "deployedLinkReferences": {}
}